{
  "_format": "hh-sol-artifact-1",
  "contractName": "Escrow",
  "sourceName": "contracts/Escrow.sol",
  "abi": [
    {
      "inputs": [
        {
          "internalType": "address",
          "name": "_beneficiary",
          "type": "address"
        },
        {
          "internalType": "address",
          "name": "_arbiter",
          "type": "address"
        }
      ],
      "stateMutability": "payable",
      "type": "constructor"
    },
    {
      "anonymous": false,
      "inputs": [
        {
          "indexed": false,
          "internalType": "uint256",
          "name": "sent",
          "type": "uint256"
        }
      ],
      "name": "Approved",
      "type": "event"
    },
    {
      "inputs": [],
      "name": "approve",
      "outputs": [],
      "stateMutability": "nonpayable",
      "type": "function"
    },
    {
      "inputs": [],
      "name": "arbiter",
      "outputs": [
        {
          "internalType": "address",
          "name": "",
          "type": "address"
        }
      ],
      "stateMutability": "view",
      "type": "function"
    },
    {
      "inputs": [],
      "name": "beneficiary",
      "outputs": [
        {
          "internalType": "address",
          "name": "",
          "type": "address"
        }
      ],
      "stateMutability": "view",
      "type": "function"
    },
    {
      "inputs": [],
      "name": "depositor",
      "outputs": [
        {
          "internalType": "address",
          "name": "",
          "type": "address"
        }
      ],
      "stateMutability": "view",
      "type": "function"
    },
    {
      "stateMutability": "payable",
      "type": "receive"
    }
  ],
  "bytecode": "0x60806040526040516105e23803806105e283398181016040528101906100259190610151565b336000806101000a81548173ffffffffffffffffffffffffffffffffffffffff021916908373ffffffffffffffffffffffffffffffffffffffff16021790555081600160006101000a81548173ffffffffffffffffffffffffffffffffffffffff021916908373ffffffffffffffffffffffffffffffffffffffff16021790555080600260006101000a81548173ffffffffffffffffffffffffffffffffffffffff021916908373ffffffffffffffffffffffffffffffffffffffff1602179055505050610191565b600080fd5b600073ffffffffffffffffffffffffffffffffffffffff82169050919050565b600061011e826100f3565b9050919050565b61012e81610113565b811461013957600080fd5b50565b60008151905061014b81610125565b92915050565b60008060408385031215610168576101676100ee565b5b60006101768582860161013c565b92505060206101878582860161013c565b9150509250929050565b610442806101a06000396000f3fe6080604052600436106100435760003560e01c806312424e3f1461004f57806338af3eed14610066578063c7c4ff4614610091578063fe25e00a146100bc5761004a565b3661004a57005b600080fd5b34801561005b57600080fd5b506100646100e7565b005b34801561007257600080fd5b5061007b610249565b60405161008891906102fa565b60405180910390f35b34801561009d57600080fd5b506100a661026f565b6040516100b391906102fa565b60405180910390f35b3480156100c857600080fd5b506100d1610293565b6040516100de91906102fa565b60405180910390f35b600260009054906101000a900473ffffffffffffffffffffffffffffffffffffffff1673ffffffffffffffffffffffffffffffffffffffff163373ffffffffffffffffffffffffffffffffffffffff1614610177576040517f08c379a000000000000000000000000000000000000000000000000000000000815260040161016e90610372565b60405180910390fd5b7f3ad93af63cb7967b23e4fb500b7d7d28b07516325dcf341f88bebf959d82c1cb476040516101a691906103ab565b60405180910390a16000600160009054906101000a900473ffffffffffffffffffffffffffffffffffffffff1673ffffffffffffffffffffffffffffffffffffffff16476040516101f6906103f7565b60006040518083038185875af1925050503d8060008114610233576040519150601f19603f3d011682016040523d82523d6000602084013e610238565b606091505b505090508061024657600080fd5b50565b600160009054906101000a900473ffffffffffffffffffffffffffffffffffffffff1681565b60008054906101000a900473ffffffffffffffffffffffffffffffffffffffff1681565b600260009054906101000a900473ffffffffffffffffffffffffffffffffffffffff1681565b600073ffffffffffffffffffffffffffffffffffffffff82169050919050565b60006102e4826102b9565b9050919050565b6102f4816102d9565b82525050565b600060208201905061030f60008301846102eb565b92915050565b600082825260208201905092915050565b7f596f75277265206e6f7420746865206172626974657200000000000000000000600082015250565b600061035c601683610315565b915061036782610326565b602082019050919050565b6000602082019050818103600083015261038b8161034f565b9050919050565b6000819050919050565b6103a581610392565b82525050565b60006020820190506103c0600083018461039c565b92915050565b600081905092915050565b50565b60006103e16000836103c6565b91506103ec826103d1565b600082019050919050565b6000610402826103d4565b915081905091905056fea2646970667358221220217f5387ec7e64248e4886be0008fcd0843eee9c10b39513a0fef0c98f7a0a2264736f6c63430008130033",
  "linkReferences": {},
  "deployedLinkReferences": {}
}